:100000000C9434000C943E000C943E000C943E0082
:100010000C943E000C943E000C943E000C943E0068
:100020000C943E000C943E000C943E000C943E0058
:100030000C943E000C9440000C943E000C943E0046
:100040000C943E000C943E000C943E000C943E0038
:100050000C943E000C943E000C943E000C943E0028
:100060000C943E000C943E0011241FBECFEFD8E04C
:10007000DEBFCDBF0E945A000C946B000C940000B0
:100080001F920F920FB60F9211248F939F9380E0CF
:1000900092E0909389008093880082EC91E09093A5
:1000A0008B0080938A009F918F910F900FBE0F90CD
:1000B0001F90189586E084B980E88FBF1092850064
:1000C0001092840083EE8093800081E08093810011
:0A00D00080936F00FFCFF894FFCF7C
:00000001FF
