:100000000C9434000C943E000C943E000C943E0082
:100010000C943E000C943E000C943E000C943E0068
:100020000C943E000C943E000C943E000C943E0058
:100030000C943E000C943E000C943E000C943E0048
:100040000C943E000C943E000C943E000C943E0038
:100050000C943E000C943E000C943E000C943E0028
:100060000C943E000C943E0011241FBECFEFD8E04C
:10007000DEBFCDBF0E9440000C949E000C94000097
:1000800080E88AB984B950E290E480E620EE40E34B
:1000900030E155B9E7E0FAE13197F1F700C000002F
:1000A00015B8E7E0FAE13197F1F700C0000095B923
:1000B000E7E0FAE13197F1F700C0000085B9E7E029
:1000C000FAE13197F1F700C0000025B9E7E0FAE165
:1000D0003197F1F700C0000045B9E7E0FAE1319748
:1000E000F1F700C000008BB9E7E0FAE13197F1F7D2
:1000F00000C000002BB9E7E0FAE13197F1F700C04A
:1001000000008BB9E7E0FAE13197F1F700C0000099
:100110009BB9E7E0FAE13197F1F700C000001BB8A6
:10012000E7E0FAE13197F1F700C000003BB9E7E002
:10013000FAE13197F1F700C00000ABCFF894FFCFA0
:00000001FF
