:100000000C9434000C943E000C943E000C943E0082
:100010000C943E000C943E000C943E000C943E0068
:100020000C943E000C943E000C943E000C943E0058
:100030000C943E000C943E000C943E000C943E0048
:100040000C943E000C943E000C943E000C943E0038
:100050000C943E000C943E000C943E000C943E0028
:100060000C943E000C943E0011241FBECFEFD8E04C
:10007000DEBFCDBF0E9440000C9472000C940000C3
:1000800080E88AB940E230E420E690EE80E34BB9A4
:10009000E7E9F2E03197F1F700C000001BB8E7E9AB
:1000A000F2E03197F1F700C000003BB9E7E9F2E078
:1000B0003197F1F700C000002BB9E7E9F2E0319782
:1000C000F1F700C000009BB9E7E9F2E03197F1F7E2
:1000D00000C000008BB9E7E9F2E03197F1F700C00A
:0800E0000000D5CFF894FFCF1A
:00000001FF
