:100000000C9434000C943E000C943E000C943E0082
:100010000C943E000C943E000C943E000C943E0068
:100020000C943E000C943E000C943E000C943E0058
:100030000C943E000C943E000C943E000C943E0048
:100040000C943E000C943E000C943E000C943E0038
:100050000C943E000C943E000C943E000C943E0028
:100060000C943E000C943E0011241FBECFEFD8E04C
:10007000DEBFCDBF0E9440000C9471000C940000C4
:1000800080E88AB980E630EE20E490E18BB9E7E0C1
:10009000FAE13197F1F700C000003BB9E7E0FAE17F
:1000A0003197F1F700C000008BB9E7E0FAE1319732
:1000B000F1F700C000002BB9E7E0FAE13197F1F762
:1000C00000C000001BB8E7E0FAE13197F1F700C08B
:1000D00000009BB9E7E0FAE13197F1F700C00000BA
:0600E000D5CFF894FFCF1C
:00000001FF
